:020000040800F2
:1000000000280020CD1300085D13000863130008CA
:10001000691300086F130008751300080000000042
:100020000000000000000000000000007B1300083A
:100030008713000800000000931300089F130008B6
:1000400015140008151400081514000815140008EC
:1000500015140008151400081514000815140008DC
:1000600015140008151400081514000815140008CC
:1000700015140008151400081514000815140008BC
:1000800015140008151400081514000815140008AC
:10009000151400081514000815140008151400089C
:1000A000151400081514000815140008151400088C
:1000B000AD13000815140008000000001514000816
:1000C00015140008000000000000000015140008CE
:1000D00000000000151400081514000800000000BE
:1000E000151400081514000815140008000000007D
:1000F0000000000000000000000000000000000000
:0C01000000000000000000005FF808F1A3
:10010C0010B5054C237833B9044B13B10448AFF345
:10011C0000800123237010BDA80000200000000007
:10012C00442A000808B5034B1BB103490348AFF33D
:10013C00008008BD00000000AC000020442A00082C
:10014C0080B483B000AF7860094A7B6852F82330E2
:10015C00012B06D1064A7B68002142F823100123AB
:10016C0000E0002318460C37BD4680BC704700BF2A
:10017C00C400002080B483B000AF7860044A7B6870
:10018C00012142F8231000BF0C37BD4680BC7047DC
:10019C00C400002080B582B000AF00237B6078E003
:1001AC00404A7B6852F823203F497B6841F8232062
:1001BC003E4A7B6852F823203A497B6841F8232059
:1001CC003B4A7B6852F823203A497B6831F813305C
:1001DC001946104601F004FC03461946334A7B6865
:1001EC0042F823102F4A7B6852F823202F497B6852
:1001FC0051F823309A4249D12A4A7B6852F823207D
:10020C0029497B6851F823309A423FD1264A7B68B2
:10021C0052F8232028497B6851F823309A4217D092
:10022C00214A7B6852F8232023497B6841F823201C
:10023C00214A7B6852F82330002B27D11F4A7B6858
:10024C004FF4FA7142F823107868FFF793FF1DE022
:10025C001A4A7B6852F823305A1E18497B6841F8B9
:10026C002320164A7B6852F82330002B0ED1134AF8
:10027C007B684FF4FA7142F823100F4A7B6852F8EE
:10028C002330002B02D17868FFF774FF7B680133B1
:10029C007B607B68042B83DD00BF00BF0837BD4645
:1002AC0080BD00BF3400002048000020200000204A
:1002BC0000000020140000205C00002070000020D2
:1002CC0080B500AF914B1B68042B00F2778101A223
:1002DC0052F823F0F50200083F030008DF03000882
:1002EC00790400083105000800F054FB884B1B68AA
:1002FC00884A1360884B1B68884A1360854B1B68BF
:10030C00864A12681146184600F04AFD7F4B0122BE
:10031C001A60814B1B684FF47A7202FB03F3194687
:10032C00002000F055FF4FF47A71012000F050FFCF
:10033C004DE1012000F09EFA022000F0FBFA0120B2
:10034C0000F066FF0346012B16D1724B1B68013B74
:10035C00704A1360714B1B68013B704A13606D4B04
:10036C001B686E4A12681146184600F019FD4FF4CE
:10037C007A71012000F02CFF002000F049FF0346A9
:10038C00012B40F01D81614B02221A60604B1A68F0
:10039C00614B1B68D31A5F4A1360614B1B685F4A41
:1003AC0013605F4B1B684FF47A7202FB03F3194620
:1003BC00002000F00DFF4FF47A71012000F008FFCF
:1003CC00544B1B68554A12681146184600F0E8FC5D
:1003DC00F6E0012000F04EFA022000F07BFA01203A
:1003EC0000F016FF0346012B16D14A4B1B68013B4C
:1003FC00484A1360494B1B68013B484A1360454B04
:10040C001B68464A12681146184600F0C9FC4FF4A6
:10041C007A71012000F0DCFE002000F0F9FE0346AA
:10042C00012B40F0CF80394B03221A603A4B1B68EA
:10043C00384A1360364B1B68384A1360364B1B68BE
:10044C004FF47A7202FB03F31946002000F0C0FE51
:10045C004FF47A71012000F0BBFE2E4B1B682F4A23
:10046C0012681146184600F09BFCABE0012000F02E
:10047C0061FA022000F0FEF9012000F0C9FE0346EB
:10048C00012B16D1234B1B68013B224A1360234BD3
:10049C001B68013B214A13601E4B1B681F4A1268E4
:1004AC001146184600F07CFC4FF47A71012000F0E4
:1004BC008FFE002000F0ACFE0346012B40F0848040
:1004CC00124B04221A60164B1B68124A1360104B15
:1004DC001A68114B1B68D31A104A1360104B1B6817
:1004EC004FF47A7202FB03F31946002000F070FE01
:1004FC004FF47A71012000F06BFE064B1B68074A23
:10050C0012681146184600F04BFC5DE0D800002044
:10051C0084000020DC0000208C000020E000002083
:10052C0088000020012000F0D5F9022000F0A2F98B
:10053C00012000F06DFE0346012B16D1254B1B68E4
:10054C00013B244A1360244B1B68013B224A136075
:10055C00204B1B68204A12681146184600F020FCFC
:10056C004FF47A71012000F033FE002000F050FEB1
:10057C000346012B2AD1194B01221A60184B1B6818
:10058C00144A1360174B1B68134A1360154B1B68F6
:10059C004FF47A7202FB03F31946002000F018FEA8
:1005AC004FF47A71012000F013FE0A4B1B680A4AC3
:1005BC0012681146184600F0F3FB07E000BF06E096
:1005CC0000BF04E000BF02E000BF00E000BF00BFBE
:1005DC0080BD00BFDC000020E0000020D80000201F
:1005EC00840000208C00002080B500AF994B1B6864
:1005FC000E2B00F0C5800E2B00F323810C2B02D0A8
:10060C000D2B5BD01DE1944B1B681946022000F0AA
:10061C00C7FB022000F0FCFD0346012B0CD102218C
:10062C008E4801F00CFA10218C4801F008FA4FF4B6
:10063C00FA71022000F0CCFD0120FFF781FD03468A
:10064C00012B0BD1844B1B680133834A1360824B03
:10065C001B68632B02DD804B01221A600220FFF71E
:10066C006FFD0346012B40F0EE807B4B1A687C4BF0
:10067C001B689A4204DC7A4B1B680133764A136080
:10068C00754B1A68764B1B68D31A764A1360754BF8
:10069C001B68002B02DC734B01221A60714B1B6828
:1006AC00632B02DD6F4B63221A606B4B1B686E4A27
:1006BC0013606C4B1B686D4A1360C4E0694B1B687C
:1006CC001946032000F06CFB022000F0A1FD03464C
:1006DC00012B0CD10421614801F0B1F920215F48B4
:1006EC0001F0ADF94FF4FA71022000F071FD012018
:1006FC00FFF726FD0346012B0BD15A4B1B68013328
:10070C00584A1360574B1B68632B02DD554B012273
:10071C001A600220FFF714FD0346012B40F0958070
:10072C00504B1A684C4B1B689A420BDB4A4B1B68AC
:10073C00013B4C4A13604B4B1B68002B02DC494BB2
:10074C0001221A60444B1A68464B1B68D31A444A60
:10075C001360434B1B68002B02DC414B01221A60D7
:10076C003F4B1B68632B02DD3D4B63221A603D4BF4
:10077C001B683E4A13603A4B1B683D4A136064E0A9
:10078C00374B1B681946042000F00AFB022000F0CE
:10079C003FFD0346012B0CD10821304801F04FF9E5
:1007AC0040212E4801F04BF94FF4FA71022000F071
:1007BC000FFD0120FFF7C4FC0346012B0BD1284B86
:1007CC001B680133264A1360254B1B68632B02DD23
:1007DC00234B01221A600220FFF7B2FC0346012BC7
:1007EC0035D11F4B1A681C4B1B689A420BDB1A4BFA
:1007FC001B68013B1A4A1360194B1B68002B02DC67
:10080C00174B01221A60144B1A68154B1B68D31A2C
:10081C00144A1360134B1B68002B02DC114B012292
:10082C001A60104B1B68632B02DD0E4B63221A609F
:10083C000B4B1B680E4A13600A4B1B680B4A136068
:10084C0005E000BF04E000BF02E000BF00E000BF15
:10085C0000BF80BDD800002090000020000801409F
:10086C0098000020940000208400002088000020C4
:10087C008C00002080B582B000AF78607B68012BC3
:10088C000FD100220221124801F0C1F801220421EB
:10089C000F4801F0BCF8012208210D4801F0B7F80F
:1008AC0011E07B68022B0ED100221021084801F0C8
:1008BC00AEF801222021064801F0A9F801224021BE
:1008CC00034801F0A4F800BF0837BD4680BD00BF47
:1008DC000008014080B582B000AF78607B68012BC6
:1008EC000FD101220221124801F091F800220421BB
:1008FC000F4801F08CF8012208210D4801F087F80F
:10090C0011E07B68022B0ED101221021084801F066
:10091C007EF800222021064801F079F801224021BE
:10092C00034801F074F800BF0837BD4680BD00BF16
:10093C000008014080B582B000AF78607B68012B65
:10094C000FD101220221124801F061F80122042189
:10095C000F4801F05CF8002208210D4801F057F80F
:10096C0011E07B68022B0ED101221021084801F006
:10097C004EF801222021064801F049F800224021BE
:10098C00034801F044F800BF0837BD4680BD00BFE6
:10099C000008014080B500AF012202210E4801F091
:1009AC0036F8012204210C4801F031F8012208210B
:1009BC00094801F02CF801221021074801F027F812
:1009CC0001222021044801F022F801224021024892
:1009DC0001F01DF800BF80BD0008014080B500AFDC
:1009EC0001220121114801F012F8012202210F48C5
:1009FC0001F00DF8012204210C4801F008F8012245
:100A0C0008210A4801F003F801221021074800F0E0
:100A1C00FEFF01222021054800F0F9FF01224021B0
:100A2C00024800F0F4FF00BF80BD00BF000C014085
:100A3C0080B582B000AF7860FFF7D0FF7B68092BE0
:100A4C0000F2178101A252F823F000BF810A0008BE
:100A5C00BF0A0008D50A0008090B00083D0B000866
:100A6C00670B00089B0B0008D90B0008F90B00085A
:100A7C00410C000800220121804800F0C8FF002230
:100A8C0002217E4800F0C3FF002204217B4800F0C5
:100A9C00BEFF00220821794800F0B9FF0022102186
:100AAC00764800F0B4FF00222021744800F0AFFF1C
:100ABC00E0E000220221714800F0A9FF002204218D
:100ACC006E4800F0A4FFD5E0002201216B4800F035
:100ADC009EFF00220221694800F099FF00220821A4
:100AEC00664800F094FF00221021644800F08FFF4C
:100AFC0000224021614800F08AFFBBE00022012166
:100B0C005E4800F084FF002202215C4800F07FFF69
:100B1C0000220421594800F07AFF0022082157488E
:100B2C0000F075FF00224021544800F070FFA1E056
:100B3C0000220221514800F06AFF002204214F4894
:100B4C0000F065FF002220214C4800F060FF0022DD
:100B5C0040214A4800F05BFF8CE00022012147480D
:100B6C0000F055FF00220421444800F050FF002201
:100B7C000821424800F04BFF002220213F4800F0A2
:100B8C0046FF002240213D4800F041FF72E0002268
:100B9C0001213A4800F03BFF00220421374800F0C5
:100BAC0036FF00220821354800F031FF00221021C9
:100BBC00324800F02CFF00222021304800F027FFA3
:100BCC00002240212D4800F022FF53E00022012199
:100BDC002A4800F01CFF00220221284800F017FFD1
:100BEC0000220421254800F012FF43E000220121DD
:100BFC00224800F00CFF00220221204800F007FFE1
:100C0C00002204211D4800F002FF002208211B488D
:100C1C0000F0FDFE00221021184800F0F8FE002222
:100C2C002021164800F0F3FE00224021134800F06A
:100C3C00EEFE1FE000220121104800F0E8FE002229
:100C4C0002210E4800F0E3FE002204210B4800F0C4
:100C5C00DEFE00220821094800F0D9FE00222021E6
:100C6C00064800F0D4FE00224021044800F0CFFEDC
:100C7C0000E000BF00BF0837BD4680BD000C01403E
:100C8C0080B582B000AF78607B68032B7ED801A260
:100C9C0052F823F0B10C0008EB0C0008250D0008ED
:100CAC005F0D00083C4B1B681846FFF7C1FE002285
:100CBC0080213A4800F0ABFE01224FF48071374896
:100CCC0000F0A5FE01224FF40071344800F09FFEA5
:100CDC0001224FF48061314800F099FE57E02E4B11
:100CEC005B681846FFF7A4FE012280212B4800F018
:100CFC008EFE00224FF48071284800F088FE0122FD
:100D0C004FF40071254800F082FE01224FF48061FF
:100D1C00224800F07CFE3AE01F4B9B681846FFF718
:100D2C0087FE012280211D4800F071FE01224FF444
:100D3C0080711A4800F06BFE00224FF400711748C6
:100D4C0000F065FE01224FF48061144800F05FFE54
:100D5C001DE0114BDB681846FFF76AFE012280216B
:100D6C000E4800F054FE01224FF480710B4800F045
:100D7C004EFE01224FF40071084800F048FE00229C
:100D8C004FF48061054800F042FE00E000BF00BF58
:100D9C000837BD4680BD00BFE400002000080140BC
:100DAC0080B483B000AF786039607B68184A82FBEE
:100DBC0003129210DB17D31A164A13607968144B7E
:100DCC0083FB01239A10CB17D21A13469B001344B2
:100DDC005B00CA1A0F4B5A603B680D4A82FB031228
:100DEC009210DB17D31A0B4A93603968084B83FBBC
:100DFC0001239A10CB17D21A13469B0013445B00A5
:100E0C00CA1A044BDA6000BF0C37BD4680BC704771
:100E1C0067666666E400002080B500AF032000F032
:100E2C00F7F90346012B15D10B4B1B681846FFF73E
:100E3C0027FF7D21032000F0CBF9074B1B68013302
:100E4C00054A1360044B1B680422934202DB024BDD
:100E5C0000221A6000BF80BDF400002080B500AFF6
:100E6C0000F0D4FA00F0B4F800F03AF900F0ECF825
:100E7C004E4801F029FA4E4B00221A607D210320C6
:100E8C0000F0A6F94FF47A71042000F0A1F90420C7
:100E9C0000F0BEF90346002B08D04FF47A71042001
:100EAC0000F096F90121434800F0C9FD0020FFF73E
:100EBC0047F90346012B5DD13D4B1B68002B07D036
:100ECC003B4B1B68002B20DD394B1B68042B1CDCB7
:100EDC00374B0C221A60FFF75DFD374B1B68374A06
:100EEC001360374B1B68374A1360374B1B68374A04
:100EFC0013604FF4FA71022000F06AF92F4B1B6853
:100F0C0019460220FFF74CFF34E0294B1B680C2BD1
:100F1C000BD1274B0D221A60FFF73CFD294B1B68A8
:100F2C0019460320FFF73CFF24E0214B1B680D2BD7
:100F3C000BD11F4B0E221A60FFF72CFD234B1B68A5
:100F4C0019460420FFF72CFF14E0194B1B680E2BDD
:100F5C0010D1194B1B68194A1360194B1B68194A9D
:100F6C001360194B1B68194A1360114B00221A604D
:100F7C00FFF710FD0E4B1B68002B07D00C4B1B68AA
:100F8C00002B06DD0A4B1B68042B02DCFFF798F9DB
:100F9C0009E0074B1B680B2B05DD054B1B680E2B63
:100FAC0001DCFFF721FBFFF737FF70E7F8000020AB
:100FBC00D800002000080140840000209000002090
:100FCC0088000020940000208C0000209800002055
:100FDC0080B590B000AF07F1180328220021184605
:100FEC0001F022FD3B1D00221A605A609A60DA6003
:100FFC001A610223BB610123BB621023FB62002335
:10100C007B6307F11803184600F032FD0346002BF2
:10101C0001D000F0D8F80F237B600023BB600023C5
:10102C00FB6000233B6100237B613B1D00211846C4
:10103C0000F09EFF0346002B01D000F0C4F800BF67
:10104C004037BD4680BD000080B586B000AF07F1CB
:10105C00080300221A605A609A60DA603B4600224C
:10106C001A605A601D4B4FF080421A601B4B41F6C0
:10107C003F725A60194B00229A60184B0922DA60B1
:10108C00164B00221A61154B00229A61134801F08D
:10109C00CBF80346002B01D000F095F84FF48053A9
:1010AC00BB6007F1080319460C4801F049FA0346E6
:1010BC00002B01D000F087F800233B6000237B60FD
:1010CC003B461946054801F021FC0346002B01D094
:1010DC0000F079F800BF1837BD4680BDF80000203D
:1010EC0080B586B000AF07F1080300221A605A6081
:1010FC009A60DA60284B9B69274A43F0040393619A
:10110C00254B9B6903F004037B607B68224B9B6936
:10111C00214A43F0080393611F4B9B6903F00803BA
:10112C003B603B68002240F2FF711C4800F06FFCF2
:10113C0000227F211A4800F06AFC40F2FF73BB606A
:10114C000123FB6000233B6102237B6107F1080351
:10115C001946124800F0CAFA7F23BB600123FB60DA
:10116C0000233B6102237B6107F1080319460C48FD
:10117C0000F0BCFA4FF46053BB600023FB6001230A
:10118C003B6107F108031946044800F0AFFA00BFB1
:10119C001837BD4680BD00BF00100240000801405A
:1011AC00000C014080B582B000AF78607B681B6892
:1011BC00B3F1804F03D100F045F8FEF7EBFF00BF11
:1011CC000837BD4680BD80B400AF72B600BFFEE7E5
:1011DC0080B483B000AF786039603B68094A82FB09
:1011EC0003129210DB17D21A07497B6841F82320AF
:1011FC00064A7B68002142F8231000BF0C37BD461D
:10120C0080BC70476766666640010020680100205C
:10121C0080B483B000AF7860094A7B6852F8233001
:10122C00012B06D1064A7B68002142F823100123CA
:10123C0000E0002318460C37BD4680BC704700BF49
:10124C006801002080B483B000AF00237B601CE0F9
:10125C00124A7B6852F82330002B13DD0F4A7B684F
:10126C0052F823305A1E0D497B6841F823200B4A53
:10127C007B6852F82330002B04D1094A7B6801218A
:10128C0042F823107B6801337B607B68092BDFDD20
:10129C0000BF00BF0C37BD4680BC7047400100202A
:1012AC006801002080B485B000AF154B9B69144ACF
:1012BC0043F001039361124B9B6903F00103BB6084
:1012CC00BB680F4BDB690E4A43F08053D3610C4B68
:1012DC00DB6903F080537B607B680A4B5B68FB60C7
:1012EC00FB6823F0E063FB60FB6843F08063FB600A
:1012FC00044AFB68536000BF1437BD4680BC70477E
:10130C00001002400000014080B584B000AF78604E
:10131C007B681B68B3F1804F13D10C4BDB690B4A14
:10132C0043F00103D361094BDB6903F00103FB605C
:10133C00FB68002200211C2000F0A1F91C2000F009
:10134C00BAF900BF1037BD4680BD00BF0010024087
:10135C0080B400AFFEE780B400AFFEE780B400AF0E
:10136C00FEE780B400AFFEE780B400AFFEE780B4C8
:10137C0000AF00BFBD4680BC704780B400AF00BF5B
:10138C00BD4680BC704780B400AF00BFBD4680BC7A
:10139C00704780B500AF00F07FF800BF80BD000043
:1013AC0080B500AF024800F0DBFF00BF80BD00BF7E
:1013BC00F800002080B400AF00BFBD4680BC704771
:1013CC00FFF7F8FF0B480C490C4A002302E0D458F5
:1013DC00C4500433C4188C42F9D3094A094C002375
:1013EC0001E013600432A242FBD301F0F9FAFFF7DB
:1013FC0035FD704700000020A8000020882A000856
:10140C00A800002094010020FEE7000080B500AF8A
:10141C00084B1B68074A43F010031360032000F0CD
:10142C0023F90F2000F008F8FFF73CFF00231846C3
:10143C0080BD00BF0020024080B582B000AF786054
:10144C00124B1A68124B1B7819464FF47A73B3FB84
:10145C00F1F3B2FBF3F3184600F03BF90346002B13
:10146C0001D001230EE07B680F2B0AD8002279688B
:10147C004FF0FF3000F003F9064A7B68136000233D
:10148C0000E0012318460837BD4680BD9C000020B3
:10149C00A4000020A000002080B400AF054B1B78F6
:1014AC001A46054B1B681344034A136000BFBD4624
:1014BC0080BC7047A40000209001002080B400AFD5
:1014CC00024B1B681846BD4680BC7047900100203B
:1014DC0080B485B000AF78607B6803F00703FB60D5
:1014EC000C4BDB68BB60BA684FF6FF031340BB6064
:1014FC00FB681A02BB68134343F0BF6343F4003329
:10150C00BB60044ABB68D36000BF1437BD4680BCC7
:10151C00704700BF00ED00E080B400AF044BDB6807
:10152C001B0A03F007031846BD4680BC704700BF7A
:10153C0000ED00E080B483B000AF0346FB7197F977
:10154C000730002B0BDBFB7903F01F02064997F9E0
:10155C0007305B09012000FA02F241F8232000BF9A
:10156C000C37BD4680BC704700E100E080B483B00E
:10157C0000AF03463960FB7197F90730002B0ADB8B
:10158C003B68DAB20C4997F907301201D2B20B441E
:10159C0083F800230AE03B68DAB20849FB7903F0D0
:1015AC000F03043B1201D2B20B441A7600BF0C3766
:1015BC00BD4680BC704700BF00E100E000ED00E0DC
:1015CC0080B489B000AFF860B9607A60FB6803F052
:1015DC000703FB61FB69C3F10703042B28BF04233A
:1015EC00BB61FB690433062B02D9FB69033B00E0AA
:1015FC0000237B614FF0FF32BB6902FA03F3DA433D
:10160C00BB681A407B699A404FF0FF317B6901FA45
:10161C0003F3D9437B680B40134318462437BD466C
:10162C0080BC704780B582B000AF78607B68013BAE
:10163C00B3F1807F01D301230FE00A4A7B68013BA1
:10164C0053600F214FF0FF30FFF790FF054B002246
:10165C009A60044B07221A60002318460837BD46CF
:10166C0080BD00BF10E000E080B582B000AF7860B4
:10167C007868FFF72DFF00BF0837BD4680BD80B5E9
:10168C0086B000AF0346B9607A60FB7300237B61C0
:10169C00FFF742FF78617A68B9687869FFF790FFC5
:1016AC00024697F90F3011461846FFF75FFF00BF4F
:1016BC001837BD4680BD80B582B000AF0346FB71C4
:1016CC0097F907301846FFF735FF00BF0837BD46BE
:1016DC0080BD80B582B000AF78607868FFF7A2FF5C
:1016EC00034618460837BD4680BD000080B48BB059
:1016FC0000AF7860396000237B6200233B6248E1D5
:10170C0001227B6A02FA03F3FB613B681B68FA69EE
:10171C001340BB61BA69FB699A4240F037813B6860
:10172C005B68A34A93425ED0A14A934275D8A14A02
:10173C00934258D09F4A93426FD89F4A934252D0BB
:10174C009D4A934269D89D4A93424CD09B4A9342FE
:10175C0063D89B4A934246D0994A93425DD8122B48
:10176C002AD8122B59D801A252F823F0F3170008EB
:10177C00CD170008DF1700082118000827180008EB
:10178C002718000827180008271800082718000831
:10179C002718000827180008271800082718000821
:1017AC002718000827180008271800082718000811
:1017BC00D5170008E9170008824A934213D02CE091
:1017CC003B68DB683B6229E03B68DB6804333B62C7
:1017DC0024E03B68DB6808333B621FE03B68DB6856
:1017EC000C333B621AE03B689B68002B02D104234C
:1017FC003B6213E03B689B68012B05D108233B62DD
:10180C007B68FA691A6109E008233B627B68FA6914
:10181C005A6103E000233B6200E000BFBB69FF2B71
:10182C0001D87B6801E07B6804337B61BB69FF2BCB
:10183C0002D87B6A9B0002E07B6A083B9B003B6101
:10184C007B691A680F213B6901FA03F3DB431A40E9
:10185C00396A3B6901FA03F31A437B691A603B68E6
:10186C005B6803F08053002B00F09080564B9B6913
:10187C00554A43F001039361534B9B6903F00103F9
:10188C00BB60BB68514A7B6A9B08023352F8233019
:10189C00FB607B6A03F003039B000F2202FA03F345
:1018AC00DB43FA681340FB607B68494A93420DD0D6
:1018BC007B68484A934207D07B68474A934201D1E0
:1018CC00022304E0032302E0012300E000237A6AF0
:1018DC0002F0030292009340FA681343FB603B4909
:1018EC007B6A9B080233FA6841F823203B685B68EB
:1018FC0003F48013002B06D0384B9A683749BB6928
:10190C0013438B6006E0354B9A68BB69DB43334964
:10191C0013408B603B685B6803F40013002B06D00C
:10192C002E4BDA682D49BB691343CB6006E02B4B79
:10193C00DA68BB69DB4329491340CB603B685B68C1
:10194C0003F40033002B06D0244B5A682349BB699F
:10195C0013434B6006E0214B5A68BB69DB431F49BC
:10196C0013404B603B685B6803F48033002B06D05C
:10197C001A4B1A681949BB6913430B6006E0174BE5
:10198C001A68BB69DB43154913400B607B6A013352
:10199C007B623B681A687B6A22FA03F3002B7FF4A4
:1019AC00AFAE00BF00BF2C37BD4680BC704700BF38
:1019BC000000321000003110000022100000211035
:1019CC000000121000001110001002400000014035
:1019DC0000080140000C01400010014000040140CF
:1019EC0080B485B000AF78600B467B807B689A68CA
:1019FC007B881340002B02D00123FB7301E00023F2
:101A0C00FB73FB7B18461437BD4680BC704780B413
:101A1C0083B000AF78600B467B8013467B707B787D
:101A2C00002B03D07A887B681A6103E07B881A0448
:101A3C007B681A6100BF0C37BD4680BC704780B410
:101A4C0085B000AF78600B467B807B68DB68FB6001
:101A5C007A88FB6813401A04FB68D9437B880B40D7
:101A6C001A437B681A6100BF1437BD4680BC7047AF
:101A7C0080B586B000AF78607B68002B01D1012364
:101A8C006CE27B681B6803F00103002B00F087807D
:101A9C00924B5B6803F00C03042B0CD08F4B5B68F0
:101AAC0003F00C03082B12D18C4B5B6803F48033CE
:101ABC00B3F5803F0BD1894B1B6803F40033002B2B
:101ACC006CD07B685B68002B68D1012346E27B6895
:101ADC005B68B3F5803F06D1804B1B687F4A43F4AB
:101AEC00803313602EE07B685B68002B0CD17B4B42
:101AFC001B687A4A23F480331360784B1B68774A4F
:101B0C0023F4802313601DE07B685B68B3F5A02F82
:101B1C000CD1724B1B68714A43F4802313606F4BDA
:101B2C001B686E4A43F4803313600BE06B4B1B68ED
:101B3C006A4A23F480331360684B1B68674A23F4AA
:101B4C00802313607B685B68002B13D0FFF7B6FC17
:101B5C00386108E0FFF7B2FC02463B69D31A642BEC
:101B6C0001D90323FAE15D4B1B6803F40033002B0E
:101B7C00F0D014E0FFF7A2FC386108E0FFF79EFC00
:101B8C0002463B69D31A642B01D90323E6E1534B7C
:101B9C001B6803F40033002BF0D100E000BF7B681E
:101BAC001B6803F00203002B63D04C4B5B6803F003
:101BBC000C03002B0BD0494B5B6803F00C03082B78
:101BCC001CD1464B5B6803F48033002B16D1434B7E
:101BDC001B6803F00203002B05D07B681B69012BEB
:101BEC0001D00123BAE13D4B1B6823F0F8027B685E
:101BFC005B69DB00394913430B603AE07B681B6976
:101C0C00002B20D0364B01221A60FFF757FC3861AD
:101C1C0008E0FFF753FC02463B69D31A022B01D9AB
:101C2C0003239BE12D4B1B6803F00203002BF0D028
:101C3C002A4B1B6823F0F8027B685B69DB002749A1
:101C4C0013430B6015E0264B00221A60FFF736FC9D
:101C5C00386108E0FFF732FC02463B69D31A022BCD
:101C6C0001D903237AE11D4B1B6803F00203002BFF
:101C7C00F0D17B681B6803F00803002B3AD07B681B
:101C8C009B69002B19D0174B01221A60FFF716FC29
:101C9C00386108E0FFF712FC02463B69D31A022BAD
:101CAC0001D903235AE10D4B5B6A03F00203002BAD
:101CBC00F0D0012000F09AFA1CE00A4B00221A60C6
:101CCC00FFF7FCFB38610FE0FFF7F8FB02463B69BE
:101CDC00D31A022B08D9032340E100BF00100240A5
:101CEC0000004242800442429E4B5B6A03F00203B6
:101CFC00002BE9D17B681B6803F00403002B00F078
:101D0C00A6800023FB75974BDB6903F08053002BF7
:101D1C000DD1944BDB69934A43F08053D361914BC3
:101D2C00DB6903F08053BB60BB680123FB758E4BF2
:101D3C001B6803F48073002B18D18B4B1B688A4AE9
:101D4C0043F480731360FFF7B9FB386108E0FFF7C9
:101D5C00B5FB02463B69D31A642B01D90323FDE082
:101D6C00814B1B6803F48073002BF0D07B68DB681D
:101D7C00012B06D17B4B1B6A7A4A43F00103136299
:101D8C002DE07B68DB68002B0CD1764B1B6A754A07
:101D9C0023F001031362734B1B6A724A23F0040392
:101DAC0013621CE07B68DB68052B0CD16D4B1B6A46
:101DBC006C4A43F0040313626A4B1B6A694A43F092
:101DCC00010313620BE0674B1B6A664A23F00103A5
:101DDC001362644B1B6A634A23F0040313627B682F
:101DEC00DB68002B15D0FFF769FB38610AE0FFF7C1
:101DFC0065FB02463B69D31A41F28832934201D902
:101E0C000323ABE0574B1B6A03F00203002BEED00D
:101E1C0014E0FFF753FB38610AE0FFF74FFB024673
:101E2C003B69D31A41F28832934201D9032395E0DE
:101E3C004C4B1B6A03F00203002BEED1FB7D012BF4
:101E4C0005D1484BDB69474A23F08053D3617B684B
:101E5C00DB69002B00F08180424B5B6803F00C03C4
:101E6C00082B61D07B68DB69022B46D13F4B0022EB
:101E7C001A60FFF723FB386108E0FFF71FFB0246EF
:101E8C003B69D31A022B01D9032367E0354B1B683E
:101E9C0003F00073002BF0D17B681B6AB3F5803F15
:101EAC0008D1304B5B6823F400327B689B682D496A
:101EBC0013434B602B4B5B6823F474127B68196AD9
:101ECC007B685B6A0B43274913434B60274B01220A
:101EDC001A60FFF7F3FA386108E0FFF7EFFA0246F1
:101EEC003B69D31A022B01D9032337E01D4B1B6826
:101EFC0003F00073002BF0D02FE01C4B00221A6073
:101F0C00FFF7DCFA386108E0FFF7D8FA02463B69C4
:101F1C00D31A022B01D9032320E0124B1B6803F0C8
:101F2C000073002BF0D118E07B68DB69012B01D129
:101F3C00012313E00B4B5B68FB60FB6803F48032FE
:101F4C007B681B6A9A4206D1FB6803F470127B68AB
:101F5C005B6A9A4201D0012300E00023184618372F
:101F6C00BD4680BD0010024000700040600042423F
:101F7C0080B584B000AF786039607B68002B01D1EC
:101F8C000123D0E06A4B1B6803F007033A689A42BE
:101F9C0010D9674B1B6823F0070265493B68134354
:101FAC000B60634B1B6803F007033A689A4201D03D
:101FBC000123B8E07B681B6803F00203002B20D0E0
:101FCC007B681B6803F00403002B05D0594B5B683E
:101FDC00584A43F4E06353607B681B6803F00803C2
:101FEC00002B05D0534B5B68524A43F4605353604B
:101FFC00504B5B6823F0F0027B689B684D491343A0
:10200C004B607B681B6803F00103002B40D07B689E
:10201C005B68012B07D1474B1B6803F40033002B83
:10202C0015D101237FE07B685B68022B07D1414B04
:10203C001B6803F00073002B09D1012373E03D4BA7
:10204C001B6803F00203002B01D101236BE0394B19
:10205C005B6823F003027B685B68364913434B6073
:10206C00FFF72CFAF8600AE0FFF728FA0246FB6843
:10207C00D31A41F28832934201D9032353E02D4BFA
:10208C005B6803F00C027B685B689B009A42EBD1A7
:10209C00274B1B6803F007033A689A4210D2244B73
:1020AC001B6823F0070222493B6813430B60204B4B
:1020BC001B6803F007033A689A4201D0012332E00F
:1020CC007B681B6803F00403002B08D0194B5B687A
:1020DC0023F4E0627B68DB68164913434B607B6832
:1020EC001B6803F00803002B09D0124B5B6823F428
:1020FC0060527B681B69DB000E4913434B6000F098
:10210C0021F802460B4B5B681B0903F00F030A49CD
:10211C00CB5C22FA03F3094A1360094B1B6818467F
:10212C00FFF78AF9002318461037BD4680BD00BF63
:10213C0000200240001002405C2A00089C00002095
:10214C00A000002080B487B000AF0023FB60002308
:10215C00BB6000237B6100237B6000233B611E4B33
:10216C005B68FB60FB6803F00C03042B02D0082BAC
:10217C0003D027E0194B3B6127E0FB689B0C03F075
:10218C000F03174AD35C7B60FB6803F48033002B8E
:10219C0010D0114B5B685B0C03F00103114AD35C4C
:1021AC00BB607B680D4A02FB03F2BB68B2FBF3F326
:1021BC007B6104E07B680C4A02FB03F37B617B6967
:1021CC003B6102E0054B3B6100BF3B6918461C3785
:1021DC00BD4680BC704700BF0010024000127A0060
:1021EC006C2A00087C2A000800093D0080B485B0E8
:1021FC0000AF78600A4B1B680A4AA2FB03235B0AF8
:10220C007A6802FB03F3FB6000BFFB685A1EFA609E
:10221C00002BF9D100BF00BF1437BD4680BC7047FE
:10222C009C000020D34D621080B582B000AF786066
:10223C007B68002B01D1012341E07B6893F83D3092
:10224C00DBB2002B06D17B68002283F83C20786837
:10225C00FFF75AF87B68022283F83D207B681A68E6
:10226C007B6804331946104600F056FA7B6801224D
:10227C0083F846207B68012283F83E207B6801228C
:10228C0083F83F207B68012283F840207B68012281
:10229C0083F841207B68012283F842207B6801226D
:1022AC0083F843207B68012283F844207B68012259
:1022BC0083F845207B68012283F83D2000231846D3
:1022CC000837BD4680BD000080B485B000AF786093
:1022DC007B6893F83D30DBB2012B01D0012335E054
:1022EC007B68022283F83D207B681B68DA687B6878
:1022FC001B6842F00102DA607B681B68164A934245
:10230C0009D07B681B68B3F1804F04D07B681B68D5
:10231C00124A934211D17B681B689B6803F0070338
:10232C00FB60FB68062B10D07B681B681A687B6807
:10233C001B6842F001021A6007E07B681B681A6890
:10234C007B681B6842F001021A60002318461437A0
:10235C00BD4680BC704700BF002C0140000400400B
:10236C0080B584B000AF78607B681B68DB68FB606D
:10237C007B681B681B69BB60BB6803F00203002B06
:10238C0020D0FB6803F00203002B1BD07B681B687A
:10239C006FF002021A617B6801221A777B681B6856
:1023AC009B6903F00303002B03D0786800F098F9C5
:1023BC0005E0786800F08BF9786800F09AF97B6892
:1023CC0000221A77BB6803F00403002B20D0FB68B3
:1023DC0003F00403002B1BD07B681B686FF0040216
:1023EC001A617B6802221A777B681B689B6903F46D
:1023FC004073002B03D0786800F072F905E0786820
:10240C0000F065F9786800F074F97B6800221A779F
:10241C00BB6803F00803002B20D0FB6803F0080313
:10242C00002B1BD07B681B686FF008021A617B685D
:10243C0004221A777B681B68DB6903F00303002B0B
:10244C0003D0786800F04CF905E0786800F03FF9AB
:10245C00786800F04EF97B6800221A77BB6803F0AD
:10246C001003002B20D0FB6803F01003002B1BD0B3
:10247C007B681B686FF010021A617B6808221A7760
:10248C007B681B68DB6903F44073002B03D078680E
:10249C0000F026F905E0786800F019F9786800F08A
:1024AC0028F97B6800221A77BB6803F00103002B24
:1024BC000CD0FB6803F00103002B07D07B681B6872
:1024CC006FF001021A617868FEF76CFEBB6803F0CE
:1024DC008003002B0CD0FB6803F08003002B07D08B
:1024EC007B681B686FF080021A61786800F06FFAE5
:1024FC00BB6803F04003002B0CD0FB6803F04003D7
:10250C00002B07D07B681B686FF040021A6178685B
:10251C0000F0F8F8BB6803F02003002B0CD0FB682C
:10252C0003F02003002B07D07B681B686FF02002A0
:10253C001A61786800F042FA00BF1037BD4680BDC2
:10254C0080B584B000AF786039600023FB737B6882
:10255C0093F83C30012B01D10223B4E07B680122BB
:10256C0083F83C207B68022283F83D207B681B6843
:10257C009B68BB60BB6823F07703BB60BB6823F42C
:10258C007F43BB607B681B68BA689A603B681B68BA
:10259C00B3F5005F3ED0B3F5005F00F28780B3F572
:1025AC00805F00F08680B3F5805F7FD8702B1AD0E7
:1025BC00702B7BD8602B50D0602B77D8502B3CD015
:1025CC00502B73D8402B58D0402B6FD8302B64D065
:1025DC00302B6BD8202B60D0202B67D8002B5CD0F5
:1025EC00102B5AD062E07B6818683B6899683B688E
:1025FC005A683B68DB6800F06AF97B681B689B686B
:10260C00BB60BB6843F07703BB607B681B68BA6830
:10261C009A604FE07B6818683B6899683B685A6819
:10262C003B68DB6800F053F97B681B689A687B6831
:10263C001B6842F480429A603CE07B6818683B68F7
:10264C0059683B68DB681A4600F0CAF87B681B685F
:10265C005021184600F021F92CE07B6818683B6883
:10266C0059683B68DB681A4600F0E8F87B681B6821
:10267C006021184600F011F91CE07B6818683B6873
:10268C0059683B68DB681A4600F0AAF87B681B683F
:10269C004021184600F001F90CE07B681A683B6891
:1026AC001B681946104600F0F8F803E00123FB7391
:1026BC0000E000BF7B68012283F83D207B6800228C
:1026CC0083F83C20FB7B18461037BD4680BD80B498
:1026DC0083B000AF786000BF0C37BD4680BC70473C
:1026EC0080B483B000AF786000BF0C37BD4680BCAF
:1026FC00704780B483B000AF786000BF0C37BD4624
:10270C0080BC704780B483B000AF786000BF0C37DA
:10271C00BD4680BC7047000080B485B000AF7860C7
:10272C0039607B681B68FB607B682B4A934207D03F
:10273C007B68B3F1804F03D07B68284A934208D161
:10274C00FB6823F07003FB603B685B68FA6813431B
:10275C00FB607B68204A934207D07B68B3F1804FC3
:10276C0003D07B681D4A934208D1FB6823F4407365
:10277C00FB603B68DB68FA681343FB60FB6823F083
:10278C0080023B685B691343FB607B68FA681A60E4
:10279C003B689A687B68DA623B681A687B689A6265
:1027AC007B680D4A934203D13B681A697B681A63B4
:1027BC007B6801225A617B681B6903F00103002BC3
:1027CC0005D07B681B6923F001027B681A6100BF8E
:1027DC001437BD4680BC7047002C014000040040FB
:1027EC0080B487B000AFF860B9607A60FB681B6A90
:1027FC007B61FB681B6A23F00102FB681A62FB68B1
:10280C009B693B613B6923F0F0033B617B681B01D7
:10281C003A6913433B617B6923F00A037B617A6954
:10282C00BB6813437B61FB683A699A61FB687A6900
:10283C001A6200BF1C37BD4680BC704780B487B09D
:10284C0000AFF860B9607A60FB681B6A7B61FB685B
:10285C001B6A23F01002FB681A62FB689B693B61E0
:10286C003B6923F470433B617B681B033A69134358
:10287C003B617B6923F0A0037B61BB681B017A6918
:10288C0013437B61FB683A699A61FB687A691A6247
:10289C0000BF1C37BD4680BC704780B485B000AF0C
:1028AC00786039607B689B68FB60FB6823F0700381
:1028BC00FB603A68FB68134343F00703FB607B68DB
:1028CC00FA689A6000BF1437BD4680BC704780B46C
:1028DC0087B000AFF860B9607A603B60FB689B68BA
:1028EC007B617B6923F47F437B613B681A027B68C5
:1028FC001A43BB6813437A6913437B61FB687A699B
:10290C009A6000BF1C37BD4680BC704780B485B050
:10291C0000AF786039607B6893F83C30012B01D1B3
:10292C00022341E07B68012283F83C207B68022271
:10293C0083F83D207B681B685B68FB607B681B68C9
:10294C009B68BB60FB6823F07003FB603B681B68F3
:10295C00FA681343FB607B681B68FA685A607B68F3
:10296C001B68144A934209D07B681B68B3F1804FF3
:10297C0004D07B681B68104A93420CD1BB6823F0CF
:10298C008003BB603B685B68BA681343BB607B68C1
:10299C001B68BA689A607B68012283F83D207B68CB
:1029AC00002283F83C20002318461437BD4680BC17
:1029BC00704700BF002C01400004004080B483B07D
:1029CC0000AF786000BF0C37BD4680BC704780B448
:1029DC0083B000AF786000BF0C37BD4680BC704739
:1029EC0070B500260C4D0D4C641BA410A64209D1E9
:1029FC0000F022F800260A4D0A4C641BA410A642D3
:102A0C0005D170BD55F8043B98470136EEE755F8F3
:102A1C00043B98470136F2E7802A0008802A000818
:102A2C00802A0008842A000803460244934200D1FD
:102A3C00704703F8011BF9E7F8B500BFF8BC08BCF8
:102A4C009E467047F8B500BFF8BC08BC9E46704760
:102A5C000000000000000000010203040607080942
:102A6C0002030405060708090A0B0C0D0E0F1010C3
:042A7C000102000053
:042A80003101000818
:042A84000D01000838
:102A88000008014000080140000801400000000063
:102A980000000000000800100020000000000000F6
:102AA800010000000000000000000000000000001D
:102AB800000000000100000000000000000000000D
:102AC80000000000000000000100000000000000FD
:102AD80000000000000000000000000001000000ED
:102AE80000000000000000000000000000000000DE
:102AF800F4010000000000000000000000000000D9
:102B080000000000050000000200000003000000B3
:102B180005000000020000000300000000127A0017
:082B2800100000000100000094
:04000005080013CD0F
:00000001FF
